{
  "_format": "hh-sol-artifact-1",
  "contractName": "Scores",
  "sourceName": "contracts/scores/Scores.sol",
  "abi": [
    {
      "inputs": [],
      "stateMutability": "nonpayable",
      "type": "constructor"
    },
    {
      "anonymous": false,
      "inputs": [
        {
          "indexed": false,
          "internalType": "address",
          "name": "_id",
          "type": "address"
        },
        {
          "indexed": false,
          "internalType": "uint256",
          "name": "_score",
          "type": "uint256"
        }
      ],
      "name": "ScoreRelease",
      "type": "event"
    },
    {
      "inputs": [
        {
          "internalType": "address",
          "name": "_sid",
          "type": "address"
        }
      ],
      "name": "fetchInfo",
      "outputs": [
        {
          "components": [
            {
              "internalType": "string",
              "name": "name",
              "type": "string"
            },
            {
              "internalType": "uint256",
              "name": "score",
              "type": "uint256"
            },
            {
              "internalType": "uint256",
              "name": "fee",
              "type": "uint256"
            }
          ],
          "internalType": "struct Student",
          "name": "",
          "type": "tuple"
        }
      ],
      "stateMutability": "view",
      "type": "function"
    },
    {
      "inputs": [],
      "name": "getStudentNum",
      "outputs": [
        {
          "internalType": "uint256",
          "name": "",
          "type": "uint256"
        }
      ],
      "stateMutability": "view",
      "type": "function"
    },
    {
      "inputs": [],
      "name": "listAllStudents",
      "outputs": [
        {
          "components": [
            {
              "internalType": "string",
              "name": "name",
              "type": "string"
            },
            {
              "internalType": "uint256",
              "name": "score",
              "type": "uint256"
            },
            {
              "internalType": "uint256",
              "name": "fee",
              "type": "uint256"
            }
          ],
          "internalType": "struct Student[]",
          "name": "",
          "type": "tuple[]"
        }
      ],
      "stateMutability": "view",
      "type": "function"
    },
    {
      "inputs": [
        {
          "internalType": "string",
          "name": "_name",
          "type": "string"
        }
      ],
      "name": "register",
      "outputs": [],
      "stateMutability": "payable",
      "type": "function"
    },
    {
      "inputs": [
        {
          "internalType": "address",
          "name": "_sid",
          "type": "address"
        },
        {
          "internalType": "uint256",
          "name": "_score",
          "type": "uint256"
        }
      ],
      "name": "score",
      "outputs": [],
      "stateMutability": "nonpayable",
      "type": "function"
    },
    {
      "inputs": [
        {
          "internalType": "string",
          "name": "_name",
          "type": "string"
        }
      ],
      "name": "setTeacheName",
      "outputs": [],
      "stateMutability": "nonpayable",
      "type": "function"
    },
    {
      "inputs": [],
      "name": "teacher",
      "outputs": [
        {
          "internalType": "address payable",
          "name": "",
          "type": "address"
        }
      ],
      "stateMutability": "view",
      "type": "function"
    },
    {
      "inputs": [],
      "name": "teacherName",
      "outputs": [
        {
          "internalType": "string",
          "name": "",
          "type": "string"
        }
      ],
      "stateMutability": "view",
      "type": "function"
    },
    {
      "inputs": [
        {
          "internalType": "address payable",
          "name": "_sid",
          "type": "address"
        }
      ],
      "name": "withdrawFee",
      "outputs": [],
      "stateMutability": "payable",
      "type": "function"
    }
  ],
  "bytecode": "0x60806040523480156200001157600080fd5b50336000806101000a81548173ffffffffffffffffffffffffffffffffffffffff021916908373ffffffffffffffffffffffffffffffffffffffff16021790555060f06002600082825462000067919062000090565b9250508190555060646003600082825462000083919062000090565b9250508190555062000126565b60006200009d82620000ed565b9150620000aa83620000ed565b9250827fffffffffffffffffffffffffffffffffffffffffffffffffffffffffffffffff03821115620000e257620000e1620000f7565b5b828201905092915050565b6000819050919050565b7f4e487b7100000000000000000000000000000000000000000000000000000000600052601160045260246000fd5b61141180620001366000396000f3fe6080604052600436106100865760003560e01c8063764892d711610059578063764892d714610124578063ae9af89d1461014f578063b46bff891461017a578063d4b4ee41146101a5578063f2c298be146101e257610086565b80630412d3901461008b5780631ac3ddeb146100b65780633ae620ac146100d25780637401edba146100fb575b600080fd5b34801561009757600080fd5b506100a06101fe565b6040516100ad9190611086565b60405180910390f35b6100d060048036038101906100cb9190610da3565b61028c565b005b3480156100de57600080fd5b506100f960048036038101906100f49190610e08565b6103c4565b005b34801561010757600080fd5b50610122600480360381019061011d9190610dcc565b610436565b005b34801561013057600080fd5b50610139610592565b60405161014691906110ca565b60405180910390f35b34801561015b57600080fd5b506101646105f8565b6040516101719190611064565b60405180910390f35b34801561018657600080fd5b5061018f610755565b60405161019c9190611020565b60405180910390f35b3480156101b157600080fd5b506101cc60048036038101906101c79190610d7a565b610779565b6040516101d991906110a8565b60405180910390f35b6101fc60048036038101906101f79190610e08565b610878565b005b6001805461020b906112c6565b80601f0160208091040260200160405190810160405280929190818152602001828054610237906112c6565b80156102845780601f1061025957610100808354040283529160200191610284565b820191906000526020600020905b81548152906001019060200180831161026757829003601f168201915b505050505081565b600254421161029a57600080fd5b6000600460008373ffffffffffffffffffffffffffffffffffffffff1673ffffffffffffffffffffffffffffffffffffffff16815260200190815260200160002060020154116102e957600080fd5b6000600460008373ffffffffffffffffffffffffffffffffffffffff1673ffffffffffffffffffffffffffffffffffffffff168152602001908152602001600020600101541461033857600080fd5b8073ffffffffffffffffffffffffffffffffffffffff166108fc600460008473ffffffffffffffffffffffffffffffffffffffff1673ffffffffffffffffffffffffffffffffffffffff168152602001908152602001600020600201549081150290604051600060405180830381858888f193505050501580156103c0573d6000803e3d6000fd5b5050565b60008054906101000a900473ffffffffffffffffffffffffffffffffffffffff1673ffffffffffffffffffffffffffffffffffffffff163373ffffffffffffffffffffffffffffffffffffffff161461041c57600080fd5b8060019080519060200190610432929190610b82565b5050565b60008054906101000a900473ffffffffffffffffffffffffffffffffffffffff1673ffffffffffffffffffffffffffffffffffffffff163373ffffffffffffffffffffffffffffffffffffffff161461048e57600080fd5b600a60025461049d9190611202565b42106104a857600080fd5b60035442116104b657600080fd5b6000600460008473ffffffffffffffffffffffffffffffffffffffff1673ffffffffffffffffffffffffffffffffffffffff168152602001908152602001600020600201541161050557600080fd5b80600460008473ffffffffffffffffffffffffffffffffffffffff1673ffffffffffffffffffffffffffffffffffffffff1681526020019081526020016000206001018190555061055582610a8e565b7fbcacd210a6eeb0870a715b80866c6d7774db9029036744617df3f623f29a025e828260405161058692919061103b565b60405180910390a15050565b60008060009054906101000a900473ffffffffffffffffffffffffffffffffffffffff1673ffffffffffffffffffffffffffffffffffffffff163373ffffffffffffffffffffffffffffffffffffffff16146105ed57600080fd5b600580549050905090565b606060008054906101000a900473ffffffffffffffffffffffffffffffffffffffff1673ffffffffffffffffffffffffffffffffffffffff163373ffffffffffffffffffffffffffffffffffffffff161461065257600080fd5b6005805480602002602001604051908101604052809291908181526020016000905b8282101561074c57838290600052602060002090600302016040518060600160405290816000820180546106a7906112c6565b80601f01602080910402602001604051908101604052809291908181526020018280546106d3906112c6565b80156107205780601f106106f557610100808354040283529160200191610720565b820191906000526020600020905b81548152906001019060200180831161070357829003601f168201915b505050505081526020016001820154815260200160028201548152505081526020019060010190610674565b50505050905090565b60008054906101000a900473ffffffffffffffffffffffffffffffffffffffff1681565b610781610c08565b600460008373ffffffffffffffffffffffffffffffffffffffff1673ffffffffffffffffffffffffffffffffffffffff1681526020019081526020016000206040518060600160405290816000820180546107db906112c6565b80601f0160208091040260200160405190810160405280929190818152602001828054610807906112c6565b80156108545780601f1061082957610100808354040283529160200191610854565b820191906000526020600020905b81548152906001019060200180831161083757829003601f168201915b50505050508152602001600182015481526020016002820154815250509050919050565b67016345785d8a0000341461088c57600080fd5b60008054906101000a900473ffffffffffffffffffffffffffffffffffffffff1673ffffffffffffffffffffffffffffffffffffffff163373ffffffffffffffffffffffffffffffffffffffff1614156108e557600080fd5b60035442106108f357600080fd5b6000600460003373ffffffffffffffffffffffffffffffffffffffff1673ffffffffffffffffffffffffffffffffffffffff1681526020019081526020016000206001018190555080600460003373ffffffffffffffffffffffffffffffffffffffff1673ffffffffffffffffffffffffffffffffffffffff1681526020019081526020016000206000019080519060200190610991929190610b82565b5034600460003373ffffffffffffffffffffffffffffffffffffffff1673ffffffffffffffffffffffffffffffffffffffff16815260200190815260200160002060020160008282546109e491906111ac565b925050819055506005600460003373ffffffffffffffffffffffffffffffffffffffff1673ffffffffffffffffffffffffffffffffffffffff16815260200190815260200160002090806001815401808255809150506001900390600052602060002090600302016000909190919091506000820181600001908054610a69906112c6565b610a74929190610c29565b506001820154816001015560028201548160020155505050565b60008054906101000a900473ffffffffffffffffffffffffffffffffffffffff1673ffffffffffffffffffffffffffffffffffffffff166108fc600460008473ffffffffffffffffffffffffffffffffffffffff1673ffffffffffffffffffffffffffffffffffffffff168152602001908152602001600020600201549081150290604051600060405180830381858888f19350505050158015610b36573d6000803e3d6000fd5b506000600460008373ffffffffffffffffffffffffffffffffffffffff1673ffffffffffffffffffffffffffffffffffffffff1681526020019081526020016000206002018190555050565b828054610b8e906112c6565b90600052602060002090601f016020900481019282610bb05760008555610bf7565b82601f10610bc957805160ff1916838001178555610bf7565b82800160010185558215610bf7579182015b82811115610bf6578251825591602001919060010190610bdb565b5b509050610c049190610cb6565b5090565b60405180606001604052806060815260200160008152602001600081525090565b828054610c35906112c6565b90600052602060002090601f016020900481019282610c575760008555610ca5565b82601f10610c685780548555610ca5565b82800160010185558215610ca557600052602060002091601f016020900482015b82811115610ca4578254825591600101919060010190610c89565b5b509050610cb29190610cb6565b5090565b5b80821115610ccf576000816000905550600101610cb7565b5090565b6000610ce6610ce184611116565b6110e5565b905082815260208101848484011115610cfe57600080fd5b610d09848285611284565b509392505050565b600081359050610d2081611396565b92915050565b600081359050610d35816113ad565b92915050565b600082601f830112610d4c57600080fd5b8135610d5c848260208601610cd3565b91505092915050565b600081359050610d74816113c4565b92915050565b600060208284031215610d8c57600080fd5b6000610d9a84828501610d11565b91505092915050565b600060208284031215610db557600080fd5b6000610dc384828501610d26565b91505092915050565b60008060408385031215610ddf57600080fd5b6000610ded85828601610d11565b9250506020610dfe85828601610d65565b9150509250929050565b600060208284031215610e1a57600080fd5b600082013567ffffffffffffffff811115610e3457600080fd5b610e4084828501610d3b565b91505092915050565b6000610e558383610f62565b905092915050565b610e6681611248565b82525050565b610e7581611236565b82525050565b6000610e8682611156565b610e908185611179565b935083602082028501610ea285611146565b8060005b85811015610ede5784840389528151610ebf8582610e49565b9450610eca8361116c565b925060208a01995050600181019050610ea6565b50829750879550505050505092915050565b6000610efb82611161565b610f05818561118a565b9350610f15818560208601611293565b610f1e81611385565b840191505092915050565b6000610f3482611161565b610f3e818561119b565b9350610f4e818560208601611293565b610f5781611385565b840191505092915050565b60006060830160008301518482036000860152610f7f8282610ef0565b9150506020830151610f946020860182611002565b506040830151610fa76040860182611002565b508091505092915050565b60006060830160008301518482036000860152610fcf8282610ef0565b9150506020830151610fe46020860182611002565b506040830151610ff76040860182611002565b508091505092915050565b61100b8161127a565b82525050565b61101a8161127a565b82525050565b60006020820190506110356000830184610e5d565b92915050565b60006040820190506110506000830185610e6c565b61105d6020830184611011565b9392505050565b6000602082019050818103600083015261107e8184610e7b565b905092915050565b600060208201905081810360008301526110a08184610f29565b905092915050565b600060208201905081810360008301526110c28184610fb2565b905092915050565b60006020820190506110df6000830184611011565b92915050565b6000604051905081810181811067ffffffffffffffff8211171561110c5761110b611356565b5b8060405250919050565b600067ffffffffffffffff82111561113157611130611356565b5b601f19601f8301169050602081019050919050565b6000819050602082019050919050565b600081519050919050565b600081519050919050565b6000602082019050919050565b600082825260208201905092915050565b600082825260208201905092915050565b600082825260208201905092915050565b60006111b78261127a565b91506111c28361127a565b9250827fffffffffffffffffffffffffffffffffffffffffffffffffffffffffffffffff038211156111f7576111f66112f8565b5b828201905092915050565b600061120d8261127a565b91506112188361127a565b92508282101561122b5761122a6112f8565b5b828203905092915050565b60006112418261125a565b9050919050565b60006112538261125a565b9050919050565b600073ffffffffffffffffffffffffffffffffffffffff82169050919050565b6000819050919050565b82818337600083830152505050565b60005b838110156112b1578082015181840152602081019050611296565b838111156112c0576000848401525b50505050565b600060028204905060018216806112de57607f821691505b602082108114156112f2576112f1611327565b5b50919050565b7f4e487b7100000000000000000000000000000000000000000000000000000000600052601160045260246000fd5b7f4e487b7100000000000000000000000000000000000000000000000000000000600052602260045260246000fd5b7f4e487b7100000000000000000000000000000000000000000000000000000000600052604160045260246000fd5b6000601f19601f8301169050919050565b61139f81611236565b81146113aa57600080fd5b50565b6113b681611248565b81146113c157600080fd5b50565b6113cd8161127a565b81146113d857600080fd5b5056fea2646970667358221220ab6ad43a17dc1704580483b6ed096c387c5590f9cf8d7a99091f00c6c1c1c39e64736f6c63430008000033",
  "linkReferences": {},
  "deployedLinkReferences": {}
}